:020000040800F2
:1000000000A00020E9050008CD050008CF05000884
:10001000D1050008D3050008D50500080000000040
:10002000000000000000000000000000D7050008EC
:10003000D905000800000000DB050008DD05000808
:100040003906000839060008390600083906000894
:100050003906000839060008390600083906000884
:100060003906000839060008390600083906000874
:100070003906000839060008390600083906000864
:100080003906000839060008390600083906000854
:100090003906000839060008390600083906000844
:1000A0003906000839060008390600083906000834
:1000B0003906000839060008390600083906000824
:1000C0003906000839060008390600083906000814
:1000D0003906000839060008390600083906000804
:1000E00039060008390600083906000839060008F4
:1000F00039060008390600083906000839060008E4
:1001000000000000000000000000000039060008A8
:1001100039060008390600083906000839060008C3
:1001200039060008390600083906000839060008B3
:100130003906000839060008000000000000000031
:1001400039060008390600083906000800000000DA
:10015000000000000000000000000000000000009F
:100160000000000000000000390600083906000801
:100170003906000800000000000000000000000038
:08018000000000003906000830
:100188000348044B834202D0034B03B1184770471E
:100198001000002010000020000000000548064B59
:1001A8001B1AD90F01EBA301491002D0034B03B16D
:1001B80018477047100000201000002000000000C1
:1001C80010B5064C237843B9FFF7DAFF044B13B197
:1001D8000448AFF300800123237010BD10000020F5
:1001E800000000004419000808B5054B1BB105497B
:1001F8000548AFF30080BDE80840FFF7CFBF00BF58
:1002080000000000140000204419000870B58AB0EE
:10021800002405940694079408940994294B5A6974
:1002280042F400125A615A6902F400120092009ACC
:100238005A6942F400225A615A6902F40022019272
:10024800019A5A6942F480025A615A6902F480029A
:100258000292029A5A6942F400325A615A6902F4C7
:1002680000320392039A5A6942F480225A615B6908
:1002780003F480230493049B134D22464FF6087120
:10028800284600F073FB372305934FF49013069329
:10029800079405A9284600F081FA4FF608730593DC
:1002A800012606960794089405A9284600F076FAD0
:1002B80005960694079405A94FF0904000F06EFA51
:1002C8000AB070BD001002400010004872B6FEE788
:1002D80008B51148114B0360114B4360002383603C
:1002E8000122C260036143618361C361036200F05C
:1002F80042FB50B90021084800F09BFB38B90021A7
:10030800054800F0C4FB20B908BDFFF7DFFFFFF781
:10031800DDFFFFF7DBFF00BF7C0300200054004037
:100328000E09002008B50F480F4B03604FF4827385
:100338004360002383604FF44072C26003614361ED
:100348004FF4007282610822C261036243628362D1
:100358000721C1620363426301F07EF900B908BD59
:10036800FFF7B4FF180300200030014008B5084823
:10037800084B036008234360022383600361002362
:100388008361036200F0AFFB00B908BDFFF79EFF71
:100398002C000020005C004000B59FB028220021FE
:1003A80014A801F0F3F900210F9110911191129105
:1003B80013913C22684601F0E9F9032314934FF4A2
:1003C800A0231593012318931023199302231B9339
:1003D8004FF480331C934FF480131D9314A800F03E
:1003E800E7FBE0B90F230F93022310930023119327
:1003F8004FF480621292139301210FA800F028FF96
:1004080078B90A4B0093002307934FF480030E93A7
:10041800684600F0F1FF30B91FB05DF804FBFFF744
:1004280055FFFFF753FFFFF751FF00BF2000020001
:1004380008B500F025F9FFF7AFFFFFF7E7FEFFF774
:1004480047FFFFF76FFFFFF791FFFEE700B583B0A7
:100458000C4B9A6942F001029A619A6902F0010212
:100468000092009ADA6942F08052DA61DB6903F09F
:1004780080530193019B072000F05AF903B05DF8FF
:1004880004FB00BF0010024010B588B0002303939E
:1004980004930593069307930268134B9A4201D07D
:1004A80008B010BD114C636943F48023636163692C
:1004B80003F480230193019BC02303931223049325
:1004C80001230593032306930423079303A90848EC
:1004D80000F064F9E36943F40013E361E36903F4AA
:1004E80000130293029BDBE7005400400010024017
:1004F8000004004800B589B00023039304930593D2
:10050800069307930268144B9A4202D009B05DF82B
:1005180004FB03F560439A6942F480529A619A6930
:1005280002F480520192019A5A6942F400325A61E7
:100538005B6903F400330293029BE02303930223D5
:100548000493032306930523079303A94FF09040D0
:1005580000F024F9DAE700BF0030014010B588B098
:100568000023039304930593069307930268134BA0
:100578009A4201D008B010BD114C636943F40033AE
:100588006361636903F400330193019B4FF4C05323
:10059800039302230493032306930E23079303A9CB
:1005A8004FF0904000F0FAF8E36943F40003E36188
:1005B800E36903F400030293029BDBE7005C00405D
:1005C80000100240FEE7FEE7FEE7FEE7FEE77047A1
:1005D8007047704708B500F065F808BD704700001F
:1005E800DFF834D0FFF7FAFF0C480D490D4A002315
:1005F80002E0D458C4500433C4188C42F9D30A4AD0
:100608000A4C002301E013600432A242FBD301F03C
:100618000FF9FFF70DFFFEE700A000200000002003
:100628001000002098190008100000206C05002018
:10063800FEE7000010B504460E4B1A784FF47A73A3
:10064800B3FBF2F30C4A1068B0FBF3F000F092F839
:1006580068B90F2C01D901200AE0002221464FF089
:10066800FF3000F077F8054B1C60002000E0012007
:1006780010BD00BF0400002000000020080000207A
:1006880008B5074A136843F010031360032000F00D
:100698004FF80020FFF7CEFFFFF7D8FE002008BD77
:1006A80000200240034A1168034B1B780B44136077
:1006B800704700BFD003002004000020014B1868D9
:1006C800704700BFD0030020002808DB0901C9B229
:1006D80000F1604000F5614080F80013704700F0B9
:1006E8000F000901C9B2014B1954704714ED00E01D
:1006F80000B500F00700C0F1070CBCF1040F28BFDB
:100708004FF0040C031D062B0FD9C31E4FF0FF3EFC
:100718000EFA0CF021EA000199400EFA03FE22EAD3
:100728000E0241EA02005DF804FB0023EEE7000038
:10073800074AD36823F4E0631B041B0C000200F48F
:10074800E060034343F0BF6343F40033D360704772
:1007580000ED00E010B50446054BD868C0F3022050
:10076800FFF7C6FF01462046FFF7AEFF10BD00BFEA
:1007780000ED00E00138B0F1807F0BD24FF0E023AC
:100788005861054AF02182F8231000209861072259
:100798001A6170470120704700ED00E070B582B023
:1007A800002365E085685E000324B44025EA04055B
:1007B800CC68B4402C438460456825EA0C054C6835
:1007C800C4F300149C402C43446062E0DD08083503
:1007D80050F8254003F0070C4FEA8C0C4FF00F0E31
:1007E8000EFA0CFE24EA0E0E0C6904FA0CF444EA24
:1007F8000E0440F8254063E0042400E0002404FAD5
:100808000EF42C430CF1020C544D45F82C40544C7A
:10081800A568D44325EA0206D1F804C01CF4801F59
:1008280001D042EA05064E4DAE60ED6804EA0506C1
:10083800D1F804C01CF4001F01D042EA0506484D57
:10084800EE606D6804EA0506D1F804C01CF4003FA8
:1008580001D042EA0506424D6E602D682C404E6874
:1008680016F4803F01D042EA05043D4A1460013382
:100878000A6832FA03F46ED04FF0010C0CFA03FC4C
:100888001CEA0202F3D04C6804F00304013C012C7A
:1008980088D94C6804F00304032C0CD0C4685D00AC
:1008A8004FF0030C0CFA05FC24EA0C0C8C68AC40E5
:1008B80044EA0C04C4604C6804F00304022C85D09C
:1008C80004684FEA430E4FF0030C0CFA0EFC24EABE
:1008D8000C0C4C6804F0030404FA0EF444EA0C040B
:1008E80004604C6814F4403FC1D01E4CA56945F023
:1008F8000105A561A46904F001040194019C4FEA73
:10090800930C0CF10205154C54F8255003F0030E16
:100918004FEA8E0E0F2404FA0EF425EA0405B0F10E
:10092800904F3FF46BAF104CA0420ED004F580649A
:10093800A0420CD004F58064A0420AD004F580647B
:10094800A0423FF459AF052459E7012457E7022490
:1009580055E7032453E702B070BD00BF0000014013
:100968000004014000100240000400480AB18161FF
:10097800704781627047002859D010B5044690F836
:100988004130002B43D0242384F841302268136877
:1009980023F0010313606368226823F07063136116
:1009A8002268936823F400439360E368012B33D0F3
:1009B800A368226843F404439360E368022B31D0B0
:1009C8002268536843F0007343F40043536022687D
:1009D800D36823F40043D360236962691343A16990
:1009E800226843EA0123D360E369216A22680B4342
:1009F80013602268136843F00103136000206064E9
:100A0800202384F84130206384F8420010BD80F828
:100A18004030FFF739FDB6E7A368226843F4004386
:100A28009360CAE723684FF400625A60C8E7012060
:100A38007047034690F84120D2B2202A23D190F87B
:100A48004020012A21D0012280F84020242280F869
:100A580041200068026822F00102026018680268FA
:100A680022F4805202601868026811430160196814
:100A78000A6842F001020A60202283F8412000201F
:100A880083F84000704702207047022070470346F1
:100A980090F84120D2B2202A21D190F84020012A92
:100AA8001FD0012280F84020242280F841200068CD
:100AB800026822F0010202601868026822F470627B
:100AC80042EA0122026019680A6842F001020A60DB
:100AD800202283F84120002083F84000704702203C
:100AE800704702207047002860D030B587B00446B0
:100AF80090F8A9323BB1032384F8A932206800F0AA
:100B08001FFE00231BE080F8A832FFF727FDF2E75D
:100B18005A1C02EB820104EBC1010120487002EB70
:100B2800820104F8313004EBC1000021C17003EBED
:100B3800830004EBC0008163C1630164D3B26068C1
:100B48008342E5D3002316E003EB830204EBC202E1
:100B5800002182F8691182F8683182F86B11C2F8B5
:100B68007811C2F87C1103EB830204EBC202C2F8CD
:100B780080110133DBB29842E6D8A4465CF8105BDA
:100B8800EE46BCE80F00AEE80F00DCF80030CEF807
:100B98000030231D0ECB284600F0DCFD002084F831
:100BA8002400012384F8A93207B030BD0120704722
:100BB800002800F0FF8270B582B00446036813F085
:100BC800010F3BD0B44B5B6803F00C03042B1ED021
:100BD800B14B5B6803F00C03082B13D06368B3F5C3
:100BE800803F68D0002B40F0928003F1804303F5EA
:100BF80004331A6822F480321A601A6822F48022B8
:100C08001A605DE0A44B5B6813F4803FE6D04FF4B4
:100C1800003393FAA3F3A04B19684FF4003393FA07
:100C2800A3F3B3FA83F303F01F03012202FA03F3D9
:100C38000B4203D06368002B00F0BE82236813F0D8
:100C4800020F00F0C480944B5B6813F00C0F00F0A7
:100C58009C80914B5B6803F00C03082B00F08F809D
:100C68002369002B00F0F080012292FAA2F3B3FA74
:100C780083F303F1845303F584139B001A60FFF791
:100C88001DFD0546022393FAA3F3834B196802233B
:100C980093FAA3F3B3FA83F303F01F03012202FAD2
:100CA80003F30B4240F0C280FFF708FD401B022807
:100CB800E8D9032089E2784A136843F48033136043
:100CC800754AD36A23F00F03A1680B43D3626368A4
:100CD800002B36D0FFF7F2FC05464FF4003393FAA9
:100CE800A3F36D4B19684FF4003393FAA3F3B3FAE7
:100CF80083F303F01F03012202FA03F30B429DD191
:100D0800FFF7DCFC401B6428E7D903205DE2B3F55C
:100D1800A02F09D0604B1A6822F480321A601A6832
:100D280022F480221A60CBE703F18043A3F53C3319
:100D38001A6842F480221A601A6842F480321A60F3
:100D4800BEE7FFF7BBFC05464FF4003393FAA3F365
:100D5800514B19684FF4003393FAA3F3B3FA83F3B2
:100D680003F01F03012202FA03F30B423FF466AFBC
:100D7800FFF7A4FC401B6428E6D9032025E2464B74
:100D88005B6813F4803F7FF46BAF022393FAA3F3FD
:100D9800414B1968022393FAA3F3B3FA83F303F0E0
:100DA8001F03012202FA03F30B4203D02369934283
:100DB80040F004823848036823F0F8036169F82298
:100DC80092FAA2F2B2FA82F291400B4303602368CE
:100DD80013F0080F00F08C80A369002B60D001216C
:100DE80091FAA1F2B2FA82F22C4B13449B001960DB
:100DF800FFF764FC0546022393FAA3F293FAA3F2E1
:100E080093FAA3F2244A516A93FAA3F3B3FA83F349
:100E180003F01F03012202FA03F30B4268D1FFF724
:100E28004DFC401B0228E6D90320CEE11A4803688E
:100E380023F0F8036169F82292FAA2F2B2FA82F278
:100E480091400B430360C2E7012393FAA3F3B3FA7B
:100E580083F303F1845303F584139B0000221A6083
:100E6800FFF72CFC0546022393FAA3F30A4B1968F3
:100E7800022393FAA3F3B3FA83F303F01F030122C7
:100E880002FA03F30B42A2D0FFF718FC401B02281A
:100E9800E9D9032099E100BF001002402081901099
:100EA800012292FAA2F2B2FA82F2B74B13449B00E3
:100EB80000221A60FFF702FC0546022393FAA3F208
:100EC80093FAA3F293FAA3F2B04A516A93FAA3F3FE
:100ED800B3FA83F303F01F03012202FA03F30B4270
:100EE80006D0FFF7EBFB401B0228E6D903206CE194
:100EF800236813F0040F00F0A980A44BDB6913F0FA
:100F0800805F20D1A14BDA6942F08052DA61DB6957
:100F180003F080530193019B01259D4B1B6813F43B
:100F2800807F12D0E368012B23D073BB03F1804389
:100F380003F504331A6A22F001021A621A6A22F0CF
:100F480004021A621AE00025E7E7914A136843F49D
:100F580080731360FFF7B2FB06468D4B1B6813F4D2
:100F6800807FDFD1FFF7AAFB801B6428F5D9032017
:100F78002BE1864A136A43F001031362E368002BEE
:100F88003CD0FFF79BFB06462EE0052B09D07F4B94
:100F98001A6A22F001021A621A6A22F004021A621C
:100FA800ECE77A4B1A6A42F004021A621A6A42F0B3
:100FB80001021A62E2E7022393FAA3F3734B596A18
:100FC800022393FAA3F3B3FA83F303F01F03012276
:100FD80002FA03F3194238D1FFF770FB801B41F284
:100FE8008833984200F2EC80022393FAA3F293FA32
:100FF800A3F3002BDFD0654B196AE1E7FFF75EFB2F
:10100800064618E0022393FAA3F3604B596A0223B9
:1010180093FAA3F3B3FA83F303F01F03012202FA4E
:1010280003F3194211D0FFF749FB801B41F28833C3
:10103800984200F2C780022393FAA3F293FAA3F32B
:10104800002BDFD0514B196AE1E7B5BBE369002BF0
:1010580000F0BA804D4A526802F00C02082A00F0EB
:101068009980022B2FD04FF0807393FAA3F3B3FA31
:1010780083F303F1845303F584139B0000221A6061
:10108800FFF71CFB04464FF0007393FAA3F33F4BA2
:1010980019684FF0007393FAA3F3B3FA83F303F0DC
:1010A8001F03012202FA03F319426BD0FFF706FB74
:1010B800001B0228E7D9032087E0344AD36923F0CC
:1010C8008053D361C2E74FF0807393FAA3F3B3FA66
:1010D80083F303F1845303F584139B0000221A6001
:1010E800FFF7ECFA05464FF0007393FAA3F3274B8A
:1010F80019684FF0007393FAA3F3B3FA83F303F07C
:101108001F03012202FA03F3194206D0FFF7D6FAA9
:10111800401B0228E7D9032057E01C494B6823F4F9
:101128007413626A206A024313434B604FF0807362
:1011380093FAA3F3B3FA83F303F1845303F5841307
:101148009B0001221A60FFF7B9FA04464FF00073BA
:1011580093FAA3F30D4B19684FF0007393FAA3F3B6
:10116800B3FA83F303F01F03012202FA03F31942CF
:1011780006D1FFF7A3FA001B0228E7D9032024E0D1
:10118800002022E0002020E0208190100010024082
:1011980000700040012B1AD0104B5B6803F48031BB
:1011A800226A914215D103F47013626A934212D1F4
:1011B80000200AE001207047012006E0012004E039
:1011C800032002E0032000E0002002B070BD0120EF
:1011D800FBE70120F9E70120F7E700BF0010024014
:1011E800164B5B6803F00C02082A01D014487047BC
:1011F80003F470114FF4701292FAA2F2B2FA82F26A
:1012080021FA02F20F49885C0C4AD26A02F00F02F6
:101218000F2191FAA1F1B1FA81F1CA400A498A5C19
:1012280013F4803F05D0064BB3FBF2F303FB00F049
:101238007047064B03FB00F0704700BF00100240E8
:1012480000127A007C1900086C19000800093D009A
:10125800002800F0BE8070B50D460446614B1B683F
:1012680003F007038B420BD25E4A136823F007038F
:101278000B431360136803F007038B4240F0AB8005
:10128800236813F0020F06D0574A536823F0F0037F
:10129800A1680B435360236813F0010F5AD06368A9
:1012A800012B2DD0022B40D0022292FAA2F24E4AF4
:1012B8001068022292FAA2F2B2FA82F202F01F0237
:1012C800012101FA02F2104200F0878046494A687B
:1012D80022F0030213434B60FFF7F0F90646424B36
:1012E8005B6803F00C036268B3EB820F32D0FFF740
:1012F800E5F9801B41F288339842F0D9032067E072
:101308004FF4003292FAA2F2374A10684FF40032D2
:1013180092FAA2F2B2FA82F202F01F02012101FA55
:1013280002F20242D2D1012052E04FF0007292FA4A
:10133800A2F22D4A10684FF0007292FAA2F2B2FAA5
:1013480082F202F01F02012101FA02F21042BDD11D
:1013580001203DE0234B1B6803F00703AB420AD989
:10136800204A136823F007032B431360136803F024
:101378000703AB4233D1236813F0040F06D01A4A8F
:10138800536823F4E063E1680B435360236813F068
:10139800080F07D0144A536823F46053216943EABD
:1013A800C1035360FFF71CFF0F4B5B6803F0F003AA
:1013B800F02292FAA2F2B2FA82F2D3400B4AD35C3C
:1013C800D8400B4B18600B4B1868FFF733F9002017
:1013D80070BD012070470120FAE70120F8E70120DD
:1013E800F6E700BF00200240001002405C19000828
:1013F8000000002008000020F0B583B00446036810
:1014080013F4803F48D0914BDB6913F0805F40F0C4
:10141800D4808E4BDA6942F08052DA61DB6903F0DE
:1014280080530193019B0125894B1B6813F4807F2E
:1014380000F0C580854B1B6A13F4407322D06268A4
:1014480002F440729A421DD08048016A21F4407625
:101458004FF4803393FAA3F2B2FA82F27D4F3A4402
:1014680092004FF0010CC2F800C093FAA3F3B3FA4C
:1014780083F33B449B0000221A60066211F0010FBF
:1014880040F0B280714A136A23F4407361680B43D9
:101498001362002D40F0CF80236813F0010F06D0AF
:1014A8006A4A136B23F00303A1680B431363236891
:1014B80013F0020F06D0654A136B23F44033E1683A
:1014C8000B431363236813F0040F06D05F4A136BB2
:1014D80023F4402321690B431363236813F0200F7F
:1014E80006D05A4A136B23F01003E1690B431363C8
:1014F800236813F4003F06D0544A536823F480034A
:10150800A16B0B435360236813F0400F06D04F4A7A
:10151800136B23F02003216A0B431363236813F032
:10152800080F06D0494A136B23F4401361690B4333
:101538001363236813F0100F06D0444A136B23F487
:101548004003A1690B431363236813F4007F06D09B
:101558003E4A536823F40003E16A0B43536023684F
:1015680013F0800F06D0394AD36A23F4F873616AFE
:101578000B43D362236813F4807F06D0334AD36ABF
:1015880023F47853A16A0B43D362236813F4805F72
:1015980006D02E4A136B23F48073216B0B4313631D
:1015A800236813F4005F4DD0284A136B23F40073AB
:1015B800616B0B431363002045E0002534E7244AA0
:1015C800136843F480731360FFF778F80646204BDE
:1015D8001B6813F4807F7FF42DAFFFF76FF8801B33
:1015E8006428F4D903202EE0FFF768F8064618E0CF
:1015F800022393FAA3F3154B596A022393FAA3F330
:10160800B3FA83F303F01F03012202FA03F30B4238
:101618007FF438AFFFF752F8801B41F288339842C5
:101628000ED8022393FAA3F293FAA3F3002BDFD088
:10163800064B196AE1E7D36923F08053D3612BE79E
:10164800032000E0002003B0F0BD00BF00100240FE
:10165800007000400081901000286FD010B504463B
:10166800436A33B94368B3F5827F05D00023C36169
:1016780002E00023036143610023A36294F85D3014
:10168800002B52D0022384F85D302268136823F0BF
:1016980040031360E368B3F5E06F4CD90022B3F55B
:1016A800706F04D0B3F5E06F01D00023A3626368C4
:1016B80003F48273A16801F404410B43216901F02A
:1016C80002010B43616901F001010B43A16901F4B7
:1016D80000710B43E16901F038010B43216A01F005
:1016E80080010B43A16A01F4005120680B43036099
:1016F800638B03F00403616A01F010010B43616B13
:1017080001F008010B43E16801F470610B432168A3
:101718001A434A602268D36923F40063D361002026
:101728002066012384F85D3010BD84F85C302046C3
:10173800FEF7E0FEA6E74FF48052B0E701207047BD
:10174800B0F8403023F47C535B045B0CA0F84030C5
:101758000020704784B0844601A880E80E00012369
:10176800ACF840300020ACF84000ACF84400ACF8CD
:10177800500004B070470000024B13B1024800F05B
:1017880097B870470000000089180008830730B533
:1017980047D0541E002A3ED0CAB2034601E0013C9D
:1017A80039D303F8012B9D07F9D1032C2CD9CDB2DD
:1017B80005EB05250F2C05EB054535D9A4F11002DD
:1017C80022F00F0C03F1100EE6444FEA121C1A46E1
:1017D800156055609560D56010327245F8D10CF1EE
:1017E800010214F00C0F03EB021204F00F0C13D0DB
:1017F800ACF1040323F003030433134442F8045BFD
:101808009A42FBD10CF003042CB1C9B21C4403F872
:10181800011B9C42FBD130BD64461346002CF4D119
:10182800F9E703461446C0E71A46A446E0E700BFB6
:1018380070B50F4B0F4DAB42A3EB050607D0B610A2
:10184800002455F8043B01349847A642F9D800F023
:1018580075F8094D094B5E1BAB424FEAA60606D048
:10186800002455F8043B01349847A642F9D870BDC6
:101878008C1900088C1900088C19000894190008A4
:1018880038B5074D074C2C1BA41005D0013C55F862
:10189800043D9847002CF9D1BDE8384000F054B811
:1018A8009819000894190008704700BF704700BFD6
:1018B800002301461A46184600F000B82DE9F843FF
:1018C8001B4D0646286898460F469146FFF7ECFFE1
:1018D800184B1C681CB3286865681F2D22DC4EB99C
:1018E8006B1C0235636044F82570FFF7DFFF0020AA
:1018F800BDE8F88304EB85010123C1F88890D4F88A
:101908008821AB401A43022EC4F88821C1F8088107
:10191800E6D1D4F88C211A43C4F88C21E0E7064CB0
:101928001C60D8E7FFF7C2FF4FF0FF30E0E700BFC9
:101938000C000020D4030020DC030020F8B500BF11
:10194800F8BC08BC9E467047F8B500BFF8BC08BC98
:041958009E467047F0
:10195C000000000000000000010203040607080953
:10196C000102030405060708090A0B0C0D0E0F10E3
:10197C0002030405060708090A0B0C0D0E0F1010C4
:08198C0081170008F1010008B9
:04199400C90100087D
:1019980000127A000100000010000000D8030020A7
:04000005080005E901
:00000001FF
